:100000000C9434030C94AD030C9451030C945103E1
:100010000C9451030C9451030C9451030C94510310
:100020000C9451030C9451030C9451030C949E03B3
:100030000C9451030C9451030C9451030C945103F0
:100040000C9451030C9451030C9451030C945103E0
:100050000C9451030C9451030C9451030C945103D0
:100060000C9451030C945103808080808080C0C028
:10007000C0C0C0C0E0E0E0E0E0E0F0F0F0F0F0F0A0
:10008000F8F8F8F8F8F8FCFCFCFCFCFCFEFEFEFEC0
:10009000FEFE04067F06040010307F3010000808C2
:1000A000083E1C08081C3E080808505854525100CD
:1000B00051525458500060584658600041635549A9
:1000C00041004E7101714E00FF0000000000FFFF73
:1000D00000000000FFFFFF000000FFFFFFFF000027
:1000E000FFFFFFFFFF00FFFFFFFFFFFF00FFFFFF1E
:1000F000FFFF0000FFFFFFFF000000FFFFFF000009
:100100000000FFFF0000000000FF203EBF3E200077
:10011000040C1C0C0400003E1C08000000081C3EDF
:10012000000010181C181000000000000000000063
:100130004F000000000700070000147F147F140028
:10014000242A7F2A1200C4C81026460036495522A8
:100150005000000503000000001C22410000004187
:10016000221C000014083E08140008083E0808007D
:1001700000A060000000101010101000006060006F
:1001800000002010080402003E4149413E000042A8
:100190007F4000004261514946002141454B3100FA
:1001A0001814127F10002745454539003C4A49493B
:1001B00030000171090503003649494936000649F6
:1001C00049291E0000666600000000A666000000C7
:1001D00008142241000014141414140000412214C5
:1001E0000800020151090600324959513E007E09BA
:1001F00009097E007F49494936003E4141412200BC
:100200007F4141221C007F49494941007F0909097A
:1002100001003E4149497A007F0808087F000041FB
:100220007F4100002040413F01007F08142241002F
:100230007F40404040007F020C027F007F04081096
:100240007F003E4141413E007F09090906003E41D1
:1002500051215E007F09192946004649494931006C
:1002600001017F0101003F4040403F001F2040202E
:100270001F003F4038403F00631408146300070824
:1002800070080700615149454300007F414100006B
:100290000204081020000041417F00000402010216
:1002A000040040404040404000010204000020544F
:1002B000545478007F484444380038444444200073
:1002C000384444487F00385454541800087E0901CB
:1002D000020018A4A4A47C007F0804047800004451
:1002E0007D4000004080847D00007F102844000095
:1002F00000417F4000007C04180478007C0804045E
:100300007800384444443800FC242424180018247D
:100310002428FC007C080404080048545454240099
:10032000043F444020003C4040207C001C204020F2
:100330001C003C4030403C004428102844001CA0D5
:10034000A0A07C004464544C4400083641410000A5
:1003500000007F00000000414136080008040C083E
:100360000400AA55AA55AA557C1211127C007F4997
:10037000494930007F49494936007F0101010100A8
:1003800060302F217F007F494949410077087F086D
:1003900077002241494936007F1008047F007D2202
:1003A000120A7D007F0814224100403F01017F00B6
:1003B0007F020C027F007F0808087F003E41414118
:1003C0003E007F0101017F007F09090906003E41CF
:1003D0004141220001017F010100434C300C030028
:1003E0001C227F221C006314081463007F40407F9E
:1003F000C000070808087F007F407F407F003F2043
:100400003F20FF00017F484830007F4870007F0098
:100410007F4848483000224949493E007F083E4114
:100420003E00462919097F007C55545544000000C0
:1004300079000000143E55554100487E494942006C
:100440005D2222225D00292A7C2A290000007700F3
:1004500000000A555555280000010001000042BD6A
:10046000A5817E00485555555E0008142A142200C7
:1004700008080808380000080808000042BD95A9CF
:100480007E00010101010100060909060000444443
:100490005F4444001915151200001115150A0000DB
:1004A000000002010000F8404038400006097F01CA
:1004B0007F00001818000000008080C00000121F9C
:1004C000100000004E5151514E0022142A14080011
:1004D000100F6452F900100FD4AA9900351F64520E
:1004E000F90030484540200078151614780078143B
:1004F0001615780078161516780072292A2A7100C8
:100500007815141578007817151778007E09097F7B
:1005100049001EA1A1E112007C55565444007C54B0
:10052000565544007C56555644007C55545544005D
:1005300000457E44000000447E45000000467D46A4
:10054000000000457C450000497F49413E007A0992
:100550001222790038454644380038444645380070
:100560003846454638003A45464639003845444500
:1005700038002214081422003E7149473E003C41D5
:1005800042403C003C4042413C003C4241423C0035
:100590003C4140413C00044872490400417F5555AC
:1005A0000800007E0149360020555654780020543A
:1005B00056557800205655567800225556567900E3
:1005C00020555455780020545757780024547854B7
:1005D000580018A4E4242400385556541800385400
:1005E00056551800385655561800385554551800A9
:1005F00000497A40000000487A410000004A7942F0
:1006000000000049784100002055525538007A1109
:100610000A0A710030494A48300030484A493000DF
:10062000304A494A300032494A4A31003049484943
:100630003000086B6B0800005864544C340038419B
:100640004220780038404221780038424122780028
:1006500038414021780018A0A2A178000082FEA8AD
:10066000100018A1A0A1780011241FBECFEFD8E080
:10067000DEBFCDBF11E0A0E0B1E0EAEEFBE102C0D9
:1006800005900D92A432B107D9F723E0A4E2B1E0BE
:1006900001C01D92A232B207E1F70E941B090C941F
:1006A000F30D0C94000085E090E02BB120582BB99D
:1006B000E7EAF1E63197F1F700C000000197A9F7EA
:1006C0005F980895CF93DF930E94C803EC0185E201
:1006D00090E09983888322E02A839C838B8321E0A6
:1006E0002D839F838E8325E028879A87898723E03F
:1006F0002B879D878C8784E08E87E9E6F0E08081F8
:1007000082608083E89ACE010E94EE04CE01DF91E0
:10071000CF910895E1E8F0E0808188608083AFE6C2
:10072000B0E08C9182608C9388E09DE39093890087
:100730008093880080818360808308951F920F9248
:100740000FB60F9211248F9381E0809324018F9133
:100750000F900FBE0F901F9018951F920F920FB61B
:100760000F9211248F9381E0809325018F910F9038
:100770000FBE0F901F901895FB019C012B5F3F4F00
:10078000DC014D91CD014193A217B307C9F708953C
:1007900080E190E00E94DB0920E1FC0111922A95A2
:1007A000E9F70895CF93DF93DC01CD91DC911197A8
:1007B000888112969C911297E1E0F0E001C0EE0F63
:1007C0009A95EAF7E095E823E8836EBD0DB407FE3D
:1007D000FDCF8EB51F968C931F97FA01240F351FFE
:1007E0002E173F07A1F4ED91FC911197808112968D
:1007F0009C91129721E030E001C0220F9A95EAF710
:10080000822B80831F968C91DF91CF9108958081F8
:100810008EBD0DB407FEFDCF8EB58193E1CF606232
:100820000C94D2030C94D20330E020E050E040E07E
:100830006FEF0C94D2030C941404FC018785089587
:10084000DF92EF92FF920F931F93CF93DF9300D02D
:1008500000D000D0CDB7DEB78C01D62ECA01BE01C4
:100860006F5F7F4F0E94BC036AE06D0D25E030E0B2
:10087000AE014F5F5F4FC8010E940F0421E030E0DE
:10088000AE014A5F5F4F62E0C8010E941204EE248D
:10089000E394F12C970101C0220FDA94EAF78E81DC
:1008A000822B8E8321E030E0AE014A5F5F4F62E031
:1008B000C8010E940F04D8011396ED91FC91149782
:1008C000808115969C9101C0EE0C9A95EAF7E82A72
:1008D000E08226960FB6F894DEBF0FBECDBFDF9143
:1008E000CF911F910F91FF90EF90DF900895FC0141
:1008F000878590E095958795877099278630910533
:1009000014F08FEF9FEF0895CF93DF93EC01EB810D
:10091000FC8120813D8181E090E001C0880F3A9503
:10092000EAF7809582238083CE010E941B04CE01CA
:100930000E947704892F8095881F8827881FDF9160
:10094000CF91089530E020E050E040E061EE0C945B
:10095000D2030F931F93CF93DF931F92CDB7DEB7D0
:100960008C0121E030E0AE014F5F5F4F60E00E94FC
:10097000120489818E7F898321E030E0AE014F5FD0
:100980005F4F60E0C8010E940F04D8011396ED91FB
:10099000FC911497808115969C9121E030E001C074
:1009A000220F9A95EAF7822B80830F90DF91CF91E7
:1009B0001F910F910895CF93DF931F92CDB7DEB7AC
:1009C00020E7298321E030E0AE014F5F5F4F67E011
:1009D0000E940F040F90DF91CF910895FF920F9323
:1009E0001F93CF93DF931F92CDB7DEB78C01DC014D
:1009F000ED91FC911197229112963C91129781E012
:100A000090E0AC0101C0440F3A95EAF7242B208313
:100A10001396ED91FC911497229115963C911597A0
:100A2000AC0101C0440F3A95EAF7242B2083ED91E5
:100A3000FC911197208112963C911297AC0101C054
:100A4000440F3A95EAF7242B20831396ED91FC91FD
:100A50001497408115962C911597BC0102C0660F22
:100A6000771F2A95E2F79B012095242320832CB53C
:100A700020612CBD2CB520642CBD1696ED91FC9107
:100A80001797229118963C911897AC0101C0440F1A
:100A90003A95EAF7242B20831996ED91FC911A9749
:100AA00022911B963C911B97AC0101C0440F3A95D3
:100AB000EAF7242B20831C96ED91FC911D9722913F
:100AC0001E963C9101C0880F3A95EAF780958223E3
:100AD00080838CB5877F8CBD8CB58B7F8CBD8CB5AE
:100AE0008E7F8CBD8CB58D7F8CBD8DB581608DBDAD
:100AF0008CB58F7D8CBD30E020E050E040E062EEB0
:100B0000C8010E94D20330E020E050E040E061EEF6
:100B1000C8010E94D203C8010E94DB048FE08983D0
:100B200021E030E0AE014F5F5F4F60E0C8010E94FE
:100B30000F048FE3F82EF98221E030E0AE014F5F21
:100B40005F4F61E0C8010E940F04F98221E030E0AC
:100B5000AE014F5F5F4F6CE1C8010E940F0484E05B
:100B6000898321E030E0AE014F5F5F4F6DE1C80146
:100B70000E940F04198221E030E0AE014F5F5F4F09
:100B800062E0C8010E940F040F90DF91CF911F9186
:100B90000F91FF900895CF93DF931F92CDB7DEB7EB
:100BA00020E3298321E030E0AE014F5F5F4F67E033
:100BB0000E940F040F90DF91CF910895CF92DF92A2
:100BC000EF92FF920F931F93CF93DF9300D000D04B
:100BD00000D0CDB7DEB78C016B017A010E94CB0546
:100BE000BE016F5F7F4FC6010E94BC0325E030E06D
:100BF000AE014F5F5F4F60E1C8010E940F04BE016C
:100C00006F5F7F4FC6010E94BC0325E030E0AE015C
:100C10004F5F5F4F6AE0C8010E940F04D7019296B0
:100C20002C9130E0A7014E5F5F4F60EAC8010E943F
:100C3000D20321E030E0AE014A5F5F4F60E0C801BF
:100C40000E9412048E818E7F8E8321E030E0AE01FF
:100C50004A5F5F4F60E0C8010E940F04D8011396FD
:100C6000ED91FC911497808115969C9121E030E0E4
:100C700001C0220F9A95EAF7822B808326960FB641
:100C8000F894DEBF0FBECDBFDF91CF911F910F91C2
:100C9000FF90EF90DF90CF900895EF92FF920F9327
:100CA0001F93CF93DF931F92CDB7DEB78C01DC018A
:100CB0001396ED91FC911497208115963C9181E05B
:100CC00090E001C0880F3A95EAF7809582238083EF
:100CD000C8010E941B04F8018785F12CE12C85FDD9
:100CE00009C09EEFE92EFF24FA9484FF03C0EE248E
:100CF000EA94FE2CC8010E94CB0521E030E0AE0151
:100D00004F5F5F4F60E0C8010E94120489818160DB
:100D1000898321E030E0AE014F5F5F4F60E0C801A2
:100D20000E940F04C7010F90DF91CF911F910F9187
:100D3000FF90EF900895CF93DF931F92CDB7DEB76A
:100D4000FC0197859064998321E030E0AE014F5F0C
:100D50005F4F67E0CF010E940F040F90DF91CF91AA
:100D600008950F931F93CF93DF938C01EB010E94A3
:100D7000770499838883C8010E949B0688819981A2
:100D800097FF07C01AA280E0DF91CF911F910F91CA
:100D9000089521E030E0AE014E5D5F4F60E6C8018E
:100DA0000E9412042AA1222341F030E0AE014E5FDE
:100DB0005F4F61E6C8010E94D20381E0E5CF2FB703
:100DC000F89444984398419898E087FF09C0429A64
:100DD000419A4198880F9150C1F7449A2FBF0895C6
:100DE0004298F6CF2FB7F8944498439A419898E0E8
:100DF00080FF09C0429A419A419886959150C1F767
:100E0000449A2FBF08954298F6CFCF93C62F80689B
:100E10000E94DF068C2F8064CF910C94DF06E6E2FF
:100E2000F1E088EF91E0DF019C011D9221503040FC
:100E3000E1F70895CF93DF9360E080E00E9405071B
:100E4000CEE1D3E08A910E94F20681E0C632D80753
:100E5000C9F760E080E0DF91CF910C9405070E9414
:100E60000F070C941A07CF93C82F3C9A3D9A399AD2
:100E70003B9A3A9A509A2FE73AE186E02150304067
:100E80008040E1F700C000008FB7F894449845987F
:100E90009FE72AE136E0915020403040E1F700C062
:100EA0000000459A449A8FBF81E20E94DF068C2F92
:100EB00080680E94DF0684E00E94DF0683E10E94D2
:100EC000DF0680E20E94DF068CE00E94DF06CF9101
:100ED0000C942F07CF93C82F81E20E94DF068C2F3E
:100EE00080680E94DF0680E20E94DF068CE0CF91DE
:100EF0000C94DF068435C8F46033B8F4962F9695C9
:100F000096959695E82FF0E084E5989FE00DF11D09
:100F10001124EA5DFE4F677021E030E001C0220F2E
:100F20006A95EAF78081822B808308958435D0F416
:100F30006033C0F4962F969596959695E82FF0E03D
:100F400084E5989FE00DF11D1124EA5DFE4F677066
:100F500081E090E001C0880F6A95EAF78095908162
:100F60008923808308956F927F928F929F92AF9290
:100F7000BF92CF92DF92EF92FF920F931F93CF9386
:100F8000DF93362F377096E0499FA0011124062F7A
:100F900006950695069594E5099F80011124C32EB8
:100FA000D12CEFEFF0E0DF01032E01C0AA0F0A946D
:100FB000EAF77A2E7094780194E5E90EF11CA8E026
:100FC000B0E04D018C189D08082C02C0F595E795FE
:100FD0000A94E2F77E2F7095D0E0C0E048595F4F49
:100FE00090E0080F191FE80EF91EFA01EC0FFD1F23
:100FF000E491213009F440C0223009F43FC0DE0101
:10100000A80FB91FA435B10520F5D801AC0FBD1F3D
:10101000AA5DBE4FF0E0AC90672C6A205F010C2CFB
:1010200001C0AA0C0A94EAF7A628AC92683288F4A8
:10103000332379F0D701AC0FBD1FAA5DBE4FBC9022
:10104000B722082C02C0F595E7950A94E2F7EB2940
:10105000EC932196C630D10541F6DF91CF911F91D7
:101060000F91FF90EF90DF90CF90BF90AF909F9047
:101070008F907F906F900895E095C1CFE068BFCFCB
:10108000FF920F931F93CF93DF93182F062FF22E0B
:10109000EA014991411106C0DF91CF911F910F9153
:1010A000FF9008952F2D602F812F0E94B3071A5FA4
:1010B000F0CFFF920F931F93CF93DF93182F062F3C
:1010C000EA01F22EFE014491411106C0DF91CF9159
:1010D0001F910F91FF9008952F2D602F812F0E9457
:1010E000B30721961A5FEECFAF92BF92CF92DF92F5
:1010F000FF920F931F93CF93DF9318160CF057C0F6
:10110000182F159515951595877070E060E026E00D
:10111000F22EF10E04E5A8E0B0E05D01A81AB108D6
:10112000FB01EA5DFE4F912FEF019630E8F59E013D
:101130009002200D311D1124D9014C919530A8F554
:10114000C92E092E000CDD08BFEFCB1ADB0A0C9D5F
:1011500090010D9D300D11242A5D3E4F260F371F43
:10116000D9012C910A2C01C0220F0A94EAF750E011
:10117000082E02C0559547950A94E2F7242B208348
:101180009F5FEC5AFF4FF912D0CF6F5F7F4F6435EE
:10119000710531F6DF91CF911F910F91FF90DF9094
:1011A000CF90BF90AF90089540E020E0DBCF99272B
:1011B00081950CF490959C0193E0359527959A952F
:1011C000E1F7D22F877050E040E014E568E070E06E
:1011D000681B7109DA01A653BD4FC5E02C2F2D1BEA
:1011E00027FD26C0FA012102E00DF11D1124EA5D60
:1011F000FE4F90812223E9F0E455F109208130E08F
:10120000062E02C0359527950A94E2F7082E01C0F4
:10121000990F0A94EAF7292B2C93C150A455B109D0
:10122000CF3FE1F64F5F5F4F4435510599F6B2CF9E
:1012300090E020E0E4CFCF93DF93CDB7DEB7C65484
:10124000D1090FB6F894DEBF0FBECDBF85E0E6E052
:10125000F1E0DE01AE5BBF4F01900D928A95E1F7A0
:1012600078940E9462034C010E948A0384B184B97D
:10127000579A5F9A8CE40E9433070E942F072FE34E
:101280008DE093E0215080409040E1F700C00000E5
:1012900088E00E94740820E04BE051E068E280E0C2
:1012A0000E9440080E941A07CE0103966C01772421
:1012B000739481E4682E9EE1A92E91E0B92E7E01FF
:1012C00098E3E90EF11C8E010C5D1F4F22E0522EB7
:1012D00080912501882351F010922501C4010E94BC
:1012E0004D06892B19F0C4010E94A20480912401AB
:1012F000882371F31092240118991AC00E94530395
:1013000083E0EAE1F1E0D60101900D928A95E1F7E0
:10131000F60101900020E9F7EC19EBA3AE014F5F55
:101320005F4FBE016E5B7F4FC4010E94DE05D0CFD0
:101330007F926F92BF92AF92FF92EF920E941B0B2F
:10134000B701C8010E94140B61E271E0C8010E945C
:10135000090B1F925F92BF92AF92FF92EF920E9491
:101360001B0BB701C8010E94090B88E00E9474089A
:1013700020E0A80168E280E00E9440080E941A076D
:10138000F80101900020E9F73197AF01401B510BA4
:10139000B801C6010E94000B2FE38DE093E02150BD
:1013A00080409040E1F700C000000FB6F894DEBF27
:1013B0000FBECDBFADCF0F931F93CF93DF9382307E
:1013C000910510F482E090E0E0912003F091210378
:1013D00030E020E0B0E0A0E0309799F4211531052D
:1013E00009F44AC0281B390B24303105D8F58A810D
:1013F0009B816115710589F1FB0193838283FE0155
:1014000011C0408151810281138148175907E0F0D2
:101410004817590799F4109761F012960C93129798
:1014200013961C933296CF01DF91CF911F910F91AC
:1014300008950093200310932103F4CF2115310563
:1014400051F04217530738F0A901DB019A01BD01A1
:10145000DF01F801C1CFEF01F9CF90932103809311
:101460002003CDCFFE01E20FF31F81939193225011
:10147000310939832883D7CF20911E0330911F0370
:10148000232B41F4209102013091030130931F037B
:1014900020931E0320910001309101012115310597
:1014A00041F42DB73EB74091040150910501241B32
:1014B000350BE0911E03F0911F03E217F307A0F430
:1014C0002E1B3F0B2817390778F0AC014E5F5F4F9A
:1014D0002417350748F04E0F5F1F50931F034093AA
:1014E0001E03819391939FCFF0E0E0E09CCFCF93D8
:1014F000DF930097E9F0FC01329713821282A091EA
:101500002003B0912103ED0130E020E01097A1F419
:1015100020813181820F931F20911E0330911F0380
:101520002817390709F061C0F0931F03E0931E03E9
:10153000DF91CF910895EA01CE17DF07E8F54A81E0
:101540005B819E0141155105B1F7E901FB83EA83F7
:1015500049915991C40FD51FEC17FD0761F48081A3
:1015600091810296840F951FE90199838883828176
:1015700093819B838A83F0E0E0E012968D919C91A9
:1015800013970097B9F52D913C911197CD010296D3
:10159000820F931F20911E0330911F0328173907D4
:1015A00039F6309751F51092210310922003B09331
:1015B0001F03A0931E03BCCFD383C28340815181FC
:1015C000840F951FC817D90761F44E5F5F4F88815C
:1015D0009981480F591F518340838A819B8193834E
:1015E00082832115310509F0B0CFF0932103E093F8
:1015F00020039ECFFD01DC01C0CF13821282D7CF22
:10160000FB01DC0102C001900D9241505040D8F71F
:101610000895FB01DC010D900020E9F7119701907E
:101620000D920020E1F70895FB01DC0101900D927D
:101630000020E1F70895AEE0B0E0E1E2FBE00C94B9
:10164000CA0D0D891E8986E08C831A8309838FEF6A
:101650009FE79E838D83AE01475E5F4F6F89788DD4
:10166000CE0101960E943E0B2F813885020F131F79
:10167000F80110822E96E4E00C94E60DABE0B0E0A9
:10168000E4E4FBE00C94BC0D7C013B018A01FC010D
:1016900017821682838181FFC8C1CE0101965C0149
:1016A000F7019381F30193FD859193FF81913F01B0
:1016B000882309F453C1853239F493FD859193FF52
:1016C00081913F01853229F4B70190E00E942E0DEF
:1016D000E7CF912C212C312CFFE1F31538F08B3220
:1016E00011F190F4803209F1833229F137FC3CC0CA
:1016F00020ED280F2A3050F536FE20C08AE0989E53
:10170000200D1124922E06C08D3291F0803371F796
:10171000689430F8F30193FD859193FF81913F0127
:101720008111DACF21C0689431F8689432F8F2CF91
:10173000689433F8EFCF689434F8ECCFEAE02E9E4B
:10174000200D1124222E689435F8E4CF8E3229F42E
:1017500036FC04C1689436F8DDCF8C3619F46894F1
:1017600037F8D8CF8836B1F2982F9F7D95549330B3
:10177000E0F08336A1F18337C1F1833509F063C00E
:101780002801F2E04F0E511CF801C080D180692D74
:1017900070E036FC02C06FEF7FEFC6010E94180DAB
:1017A0004C01689437F882010AC00C5F1F4FFFE3B9
:1017B000F98388248394912C6501E89437F833FEEB
:1017C0002DC0522C8114910471F5552009F468CF75
:1017D000B70180E290E00E942E0D5A94F6CFF801F6
:1017E000808189830E5F1F4FE4CF2801F2E04F0E06
:1017F000511CF801C080D180692D70E036FC02C018
:101800006FEF7FEFC6010E94230D4C018201D5CFFF
:10181000B70180E290E00E942E0D2A94281419044A
:1018200009F0B0F7CECFF60137FC859137FE8191F4
:101830006F01B70190E00E942E0D51105A94F1E013
:101840008F1A9108BFCF843619F0893609F077C016
:10185000F80137FE6BC060817181828193810C5FDA
:101860001F4FF32DFF763F2E97FF09C0909580956F
:10187000709561957F4F8F4F9F4F689437F82AE09E
:1018800030E0A5010E945E0DC82ECA188C2C432C96
:1018900036FE0CC0E89440F8C91440F434FE05C08C
:1018A00032FC03C0F32DFE7E4F2E892C44FE95C0E2
:1018B000FE01EC0DF11D8081803309F087C0242DDD
:1018C000297E422E842D8870582E43FC95C040FE00
:1018D0008FC09C2C821418F42C0C922C981844FE67
:1018E00091C0B70180E390E00E942E0D42FE09C036
:1018F00088E790E041FE02C088E590E0B7010E94D1
:101900002E0DC91408F48AC0CA94D12C9FEFC91AAD
:10191000D90ACA0CDB1CF60182916F01B70190E075
:101920000E942E0DAC14BD04B1F74FCF60817181C0
:10193000072E000C880B990B0E5F1F4F92CFD32CF4
:10194000E894D4F82AE030E0853739F1232D297F57
:10195000D22E8F3601F148F48835A9F0F70186813F
:1019600097812B96E2E10C94D80D803749F08837A7
:10197000A9F7D4FE02C06894D2F820E130E00DC08F
:101980006894D4F8F6CF34FE03C0822F8660D82E38
:1019900020E132E002C028E030E0F801D7FE0FC0BD
:1019A00060817181828193810C5F1F4FA5010E942C
:1019B0005E0DC82ECA183D2CE89437F867CF6081B9
:1019C000718190E080E00E5F1F4FF0CF42FC02C0BB
:1019D000839478CF8394839475CF842D867809F48B
:1019E00071CFF6CFB70180E290E00E942E0D839474
:1019F0008214C0F3512C73CF522C5818821408F45F
:101A00006ECFF8CF842D867809F47BCF8BE241FE30
:101A100080E247FC8DE2B70190E071CFB70180E32F
:101A200090E00E942E0D9A946CCF8FEF9FEF99CF8C
:101A3000FC010590615070400110D8F78095909599
:101A40008E0F9F1F0895FC0161507040019001109E
:101A5000D8F7809590958E0F9F1F08950F931F9331
:101A6000CF93DF93182F092FEB018B8181FD09C0E4
:101A70001FEF0FEF812F902FDF91CF911F910F91CB
:101A8000089582FF14C02E813F818C819D8128178B
:101A900039073CF4E881F981CF0101969983888365
:101AA00010838E819F8101969F838E83E3CFE8858B
:101AB000F985812F0995892BA1F3DACFFA01AA279D
:101AC000283051F1203181F1E8946F936E7F6E5F81
:101AD0007F4F8F4F9F4FAF4FB1E03ED0B4E03CD02F
:101AE000670F781F891F9A1FA11D680F791F8A1F12
:101AF000911DA11D6A0F711D811D911DA11D20D079
:101B000009F468943F912AE0269F11243019305D32
:101B10003193DEF6CF010895462F4770405D419323
:101B2000B3E00FD0C9F7F6CF462F4F70405D4A3370
:101B300018F0495D31FD4052419302D0A9F7EACF38
:101B4000B4E0A6959795879577956795BA95C9F767
:101B500000976105710508959B01AC010A2E06945A
:101B60005795479537952795BA95C9F7620F731F13
:101B7000841F951FA01D08952F923F924F925F9250
:101B80006F927F928F929F92AF92BF92CF92DF928D
:101B9000EF92FF920F931F93CF93DF93CDB7DEB7F2
:101BA000CA1BDB0B0FB6F894DEBF0FBECDBF099486
:101BB0002A88398848885F846E847D848C849B84DD
:101BC000AA84B984C884DF80EE80FD800C811B81EB
:101BD000AA81B981CE0FD11D0FB6F894DEBF0FBE1A
:0A1BE000CDBFED010895F894FFCF8A
:101BEA0000002203800001010101012E2E2E7472D1
:101BFA00616E736D69747465720068656A00256444
:041C0A0000200000B6
:00000001FF
