:100000000C9434000C949E000C9451000C945100FC
:100010000C9451000C9451000C9451000C9451001C
:100020000C9451000C9451000C9451000C948F00CE
:100030000C9451000C9451000C9451000C945100FC
:100040000C9451000C9451000C9451000C945100EC
:100050000C9451000C9451000C9451000C945100DC
:100060000C9451000C94510011241FBECFEFD8E026
:10007000DEBFCDBF11E0A0E0B1E0E0E9FAE002C0F0
:1000800005900D92A231B107D9F721E0A2E1B1E0CC
:1000900001C01D92A831B207E1F70E94D0030C9471
:1000A00046050C940000CF93DF930E94B900EC0149
:1000B00085E290E09983888322E02A839C838B8366
:1000C00021E02D839F838E8325E028879A87898767
:1000D00023E02B879D878C8784E08E87E9E6F0E01C
:1000E000808182608083E89ACE010E94DF01CE0188
:1000F000DF91CF910895E1E8F0E08081886080830E
:10010000AFE6B0E08C9182608C9388E09DE39093A1
:1001100089008093880080818360808308951F9286
:100120000F920FB60F9211248F9381E080931201EA
:100130008F910F900FBE0F901F9018951F920F92E6
:100140000FB60F9211248F9381E0809313018F914A
:100150000F900FBE0F901F901895FB019C012B5F15
:100160003F4FDC014D91CD014193A217B307C9F771
:10017000089580E190E00E94210420E1FC011192A9
:100180002A95E9F70895CF93DF93DC01CD91DC91B7
:100190001197888112969C911297E1E0F0E001C0DE
:1001A000EE0F9A95EAF7E095E823E8836EBD0DB46B
:1001B00007FEFDCF8EB51F968C931F97FA01240F73
:1001C000351F2E173F07A1F4ED91FC911197808107
:1001D00012969C91129721E030E001C0220F9A956F
:1001E000EAF7822B80831F968C91DF91CF9108953F
:1001F00080818EBD0DB407FEFDCF8EB58193E1CF1A
:1002000060620C94C3000C94C30030E020E050E026
:1002100040E06FEF0C94C3000C940501FC0187854E
:100220000895DF92EF92FF920F931F93CF93DF9386
:1002300000D000D000D0CDB7DEB78C01D62ECA01D9
:10024000BE016F5F7F4F0E94AD006AE06D0D25E03B
:1002500030E0AE014F5F5F4FC8010E94000121E016
:1002600030E0AE014A5F5F4F62E0C8010E940301C7
:10027000EE24E394F12C970101C0220FDA94EAF7FF
:100280008E81822B8E8321E030E0AE014A5F5F4F8A
:1002900062E0C8010E940001D8011396ED91FC9123
:1002A0001497808115969C9101C0EE0C9A95EAF7FF
:1002B000E82AE08226960FB6F894DEBF0FBECDBFC7
:1002C000DF91CF911F910F91FF90EF90DF900895F4
:1002D000FC01878590E095958795877099278630F2
:1002E000910514F08FEF9FEF0895CF93DF93EC010A
:1002F000EB81FC8120813D8181E090E001C0880F8D
:100300003A95EAF7809582238083CE010E940C0102
:10031000CE010E946801892F8095881F8827881F39
:10032000DF91CF91089530E020E050E040E061EEB1
:100330000C94C3000F931F93CF93DF931F92CDB7FD
:10034000DEB78C0121E030E0AE014F5F5F4F60E02F
:100350000E94030189818E7F898321E030E0AE0114
:100360004F5F5F4F60E0C8010E940001D801139603
:10037000ED91FC911497808115969C9121E030E0DD
:1003800001C0220F9A95EAF7822B80830F90DF91AC
:10039000CF911F910F910895CF93DF931F92CDB707
:1003A000DEB720E7298321E030E0AE014F5F5F4FE9
:1003B00067E00E9400010F90DF91CF910895FF92B6
:1003C0000F931F93CF93DF931F92CDB7DEB78C01AE
:1003D000DC01ED91FC911197229112963C911297BC
:1003E00081E090E0AC0101C0440F3A95EAF7242B7C
:1003F00020831396ED91FC911497229115963C91D0
:100400001597AC0101C0440F3A95EAF7242B2083DD
:10041000ED91FC911197208112963C911297AC01BD
:1004200001C0440F3A95EAF7242B20831396ED91EF
:10043000FC911497408115962C911597BC0102C030
:10044000660F771F2A95E2F79B01209524232083CE
:100450002CB520612CBD2CB520642CBD1696ED91D9
:10046000FC911797229118963C911897AC0101C006
:10047000440F3A95EAF7242B20831996ED91FC91CD
:100480001A9722911B963C911B97AC0101C0440F17
:100490003A95EAF7242B20831C96ED91FC911D9749
:1004A00022911E963C9101C0880F3A95EAF78095FB
:1004B000822380838CB5877F8CBD8CB58B7F8CBD70
:1004C0008CB58E7F8CBD8CB58D7F8CBD8DB58160DC
:1004D0008DBD8CB58F7D8CBD30E020E050E040E0DC
:1004E00062EEC8010E94C30030E020E050E040E02E
:1004F00061EEC8010E94C300C8010E94CC018FE0D8
:10050000898321E030E0AE014F5F5F4F60E0C801BA
:100510000E9400018FE3F82EF98221E030E0AE0165
:100520004F5F5F4F61E0C8010E940001F98221E046
:1005300030E0AE014F5F5F4F6CE1C8010E940001E7
:1005400084E0898321E030E0AE014F5F5F4F6DE1D1
:10055000C8010E940001198221E030E0AE014F5F26
:100560005F4F62E0C8010E9400010F90DF91CF91C0
:100570001F910F91FF900895CF93DF931F92CDB7F6
:10058000DEB720E3298321E030E0AE014F5F5F4F0B
:1005900067E00E9400010F90DF91CF910895CF9204
:1005A000DF92EF92FF920F931F93CF93DF9300D0D0
:1005B00000D000D0CDB7DEB78C016B017A010E946C
:1005C000BC02BE016F5F7F4FC6010E94AD0025E0F7
:1005D00030E0AE014F5F5F4F60E1C8010E94000153
:1005E000BE016F5F7F4FC6010E94AD0025E030E085
:1005F000AE014F5F5F4F6AE0C8010E940001D70162
:1006000092962C9130E0A7014E5F5F4F60EAC801DF
:100610000E94C30021E030E0AE014A5F5F4F60E01E
:10062000C8010E9403018E818E7F8E8321E030E01D
:10063000AE014A5F5F4F60E0C8010E940001D8012F
:100640001396ED91FC911497808115969C9121E071
:1006500030E001C0220F9A95EAF7822B808326961C
:100660000FB6F894DEBF0FBECDBFDF91CF911F91C3
:100670000F91FF90EF90DF90CF900895EF92FF924F
:100680000F931F93CF93DF931F92CDB7DEB78C01EB
:10069000DC011396ED91FC911497208115963C9105
:1006A00081E090E001C0880F3A95EAF780958223B7
:1006B0008083C8010E940C01F8018785F12CE12C90
:1006C00085FD09C09EEFE92EFF24FA9484FF03C044
:1006D000EE24EA94FE2CC8010E94BC0221E030E026
:1006E000AE014F5F5F4F60E0C8010E940301898146
:1006F0008160898321E030E0AE014F5F5F4F60E0B1
:10070000C8010E940001C7010F90DF91CF911F9196
:100710000F91FF90EF900895CF93DF931F92CDB785
:10072000DEB7FC0197859064998321E030E0AE014B
:100730004F5F5F4F67E0CF010E9400010F90DF9194
:10074000CF9108950F931F93CF93DF938C01EB010B
:100750000E94680199838883C8010E948C03888164
:10076000998197FF07C01AA280E0DF91CF911F9176
:100770000F91089521E030E0AE014E5D5F4F60E6DD
:10078000C8010E9403012AA1222341F030E0AE01FA
:100790004E5F5F4F61E6C8010E94C30081E0E5CF74
:1007A000CF93DF93CDB7DEB7A8970FB6F894DEBF2F
:1007B0000FBECDBF85E0E6E0F1E0DE01949601904A
:1007C0000D928A95E1F778940E9453007C010E9473
:1007D0007B00289A579A5F9A8E010D5F1F4F809178
:1007E0001301882351F010921301C7010E943E03A8
:1007F000892B19F0C7010E9493018091120188236F
:1008000071F310921201189918C083E0EBE0F1E047
:10081000D80101900D928A95E1F7F801019000202E
:10082000E9F7E01BEBA3AE014F5F5F4FBE016C5DCC
:100830007F4FC7010E94CF02D2CF84E0EEE0F1E00B
:10084000E7CF0F931F93CF93DF938230910510F47E
:1008500082E090E0E0911601F091170130E020E095
:10086000B0E0A0E0309799F42115310509F44AC0B1
:10087000281B390B24303105D8F58A819B816115FD
:10088000710589F1FB0193838283FE0111C04081D0
:1008900051810281138148175907E0F04817590721
:1008A00099F4109761F012960C93129713961C937B
:1008B0003296CF01DF91CF911F910F910895009350
:1008C000160110931701F4CF2115310551F042178D
:1008D000530738F0A901DB019A01BD01DF01F801DE
:1008E000C1CFEF01F9CF9093170180931601CDCFBF
:1008F000FE01E20FF31F8193919322503109398356
:100900002883D7CF2091140130911501232B41F476
:1009100020910201309103013093150120931401BD
:1009200020910001309101012115310541F42DB7CD
:100930003EB74091040150910501241B350BE09115
:100940001401F0911501E217F307A0F42E1B3F0BE1
:100950002817390778F0AC014E5F5F4F2417350731
:1009600048F04E0F5F1F509315014093140181937F
:1009700091939FCFF0E0E0E09CCFCF93DF9300977F
:10098000E9F0FC01329713821282A0911601B09116
:100990001701ED0130E020E01097A1F420813181B2
:1009A000820F931F209114013091150128173907E8
:1009B00009F061C0F0931501E0931401DF91CF912C
:1009C0000895EA01CE17DF07E8F54A815B819E01B1
:1009D00041155105B1F7E901FB83EA83499159912A
:1009E000C40FD51FEC17FD0761F480819181029639
:1009F000840F951FE90199838883828193819B836A
:100A00008A83F0E0E0E012968D919C911397009715
:100A1000B9F52D913C911197CD010296820F931F4C
:100A200020911401309115012817390739F63097B4
:100A300051F51092170110921601B0931501A09371
:100A40001401BCCFD383C28340815181840F951F91
:100A5000C817D90761F44E5F5F4F88819981480FAD
:100A6000591F518340838A819B81938382832115FF
:100A7000310509F0B0CFF0931701E09316019ECF36
:100A8000FD01DC01C0CF13821282D7CFF894FFCFD3
:100A900000001801800001010101014F4E004F4686
:020AA00046000E
:00000001FF
